{
  "_format": "hh-sol-artifact-1",
  "contractName": "TokenizedBallot",
  "sourceName": "contracts/TokenizedBallot.sol",
  "abi": [
    {
      "inputs": [
        {
          "internalType": "bytes32[]",
          "name": "proposalNames",
          "type": "bytes32[]"
        },
        {
          "internalType": "address",
          "name": "_tokenContractAddress",
          "type": "address"
        },
        {
          "internalType": "uint256",
          "name": "_targetBlockNumber",
          "type": "uint256"
        },
        {
          "internalType": "string",
          "name": "name",
          "type": "string"
        }
      ],
      "stateMutability": "nonpayable",
      "type": "constructor"
    },
    {
      "inputs": [
        {
          "internalType": "uint256",
          "name": "required",
          "type": "uint256"
        },
        {
          "internalType": "uint256",
          "name": "inControl",
          "type": "uint256"
        }
      ],
      "name": "NotEnoughVotingPower",
      "type": "error"
    },
    {
      "anonymous": false,
      "inputs": [
        {
          "indexed": true,
          "internalType": "address",
          "name": "voter",
          "type": "address"
        },
        {
          "indexed": true,
          "internalType": "uint256",
          "name": "proposal",
          "type": "uint256"
        },
        {
          "indexed": true,
          "internalType": "uint256",
          "name": "amount",
          "type": "uint256"
        }
      ],
      "name": "Vote",
      "type": "event"
    },
    {
      "inputs": [
        {
          "internalType": "address",
          "name": "owner",
          "type": "address"
        }
      ],
      "name": "nonces",
      "outputs": [
        {
          "internalType": "uint256",
          "name": "",
          "type": "uint256"
        }
      ],
      "stateMutability": "view",
      "type": "function"
    },
    {
      "inputs": [
        {
          "internalType": "uint256",
          "name": "",
          "type": "uint256"
        }
      ],
      "name": "proposals",
      "outputs": [
        {
          "internalType": "bytes32",
          "name": "name",
          "type": "bytes32"
        },
        {
          "internalType": "uint256",
          "name": "voteCount",
          "type": "uint256"
        }
      ],
      "stateMutability": "view",
      "type": "function"
    },
    {
      "inputs": [],
      "name": "targetBlockNumber",
      "outputs": [
        {
          "internalType": "uint256",
          "name": "",
          "type": "uint256"
        }
      ],
      "stateMutability": "view",
      "type": "function"
    },
    {
      "inputs": [],
      "name": "tokenContract",
      "outputs": [
        {
          "internalType": "contract IMyERC20Votes",
          "name": "",
          "type": "address"
        }
      ],
      "stateMutability": "view",
      "type": "function"
    },
    {
      "inputs": [
        {
          "internalType": "uint256",
          "name": "proposal",
          "type": "uint256"
        },
        {
          "internalType": "uint256",
          "name": "amount",
          "type": "uint256"
        }
      ],
      "name": "vote",
      "outputs": [],
      "stateMutability": "nonpayable",
      "type": "function"
    },
    {
      "inputs": [
        {
          "internalType": "uint256",
          "name": "proposal",
          "type": "uint256"
        },
        {
          "internalType": "uint256",
          "name": "amount",
          "type": "uint256"
        },
        {
          "internalType": "uint256",
          "name": "nonce",
          "type": "uint256"
        },
        {
          "internalType": "uint256",
          "name": "expiry",
          "type": "uint256"
        },
        {
          "internalType": "uint8",
          "name": "v",
          "type": "uint8"
        },
        {
          "internalType": "bytes32",
          "name": "r",
          "type": "bytes32"
        },
        {
          "internalType": "bytes32",
          "name": "s",
          "type": "bytes32"
        }
      ],
      "name": "voteBySig",
      "outputs": [],
      "stateMutability": "nonpayable",
      "type": "function"
    },
    {
      "inputs": [
        {
          "internalType": "address",
          "name": "account",
          "type": "address"
        }
      ],
      "name": "votingPower",
      "outputs": [
        {
          "internalType": "uint256",
          "name": "",
          "type": "uint256"
        }
      ],
      "stateMutability": "view",
      "type": "function"
    },
    {
      "inputs": [
        {
          "internalType": "address",
          "name": "",
          "type": "address"
        }
      ],
      "name": "votingPowerSpent",
      "outputs": [
        {
          "internalType": "uint256",
          "name": "",
          "type": "uint256"
        }
      ],
      "stateMutability": "view",
      "type": "function"
    },
    {
      "inputs": [],
      "name": "winnerName",
      "outputs": [
        {
          "internalType": "bytes32",
          "name": "winnerName_",
          "type": "bytes32"
        }
      ],
      "stateMutability": "view",
      "type": "function"
    },
    {
      "inputs": [],
      "name": "winningProposal",
      "outputs": [
        {
          "internalType": "uint256",
          "name": "winningProposal_",
          "type": "uint256"
        }
      ],
      "stateMutability": "view",
      "type": "function"
    }
  ],
  "bytecode": "0x6101606040523480156200001257600080fd5b5060405162001d9438038062001d94833981810160405281019062000038919062000584565b806040518060400160405280600181526020017f310000000000000000000000000000000000000000000000000000000000000081525060008280519060200120905060008280519060200120905060007f8b73c3c69bb8fe3d512ecc4cf759cc79239f7b179b0ffacaa9a75d522b39400f90508260e081815250508161010081815250504660a08181525050620000d8818484620001ff60201b60201c565b608081815250503073ffffffffffffffffffffffffffffffffffffffff1660c08173ffffffffffffffffffffffffffffffffffffffff168152505080610120818152505050505050508273ffffffffffffffffffffffffffffffffffffffff166101408173ffffffffffffffffffffffffffffffffffffffff16815250508160008190555060005b8451811015620001f457600160405180604001604052808784815181106200018d576200018c62000634565b5b6020026020010151815260200160008152509080600181540180825580915050600190039060005260206000209060020201600090919091909150600082015181600001556020820151816001015550508080620001eb9062000692565b91505062000160565b50505050506200076f565b600083838346306040516020016200021c95949392919062000712565b6040516020818303038152906040528051906020012090509392505050565b6000604051905090565b600080fd5b600080fd5b600080fd5b6000601f19601f8301169050919050565b7f4e487b7100000000000000000000000000000000000000000000000000000000600052604160045260246000fd5b6200029f8262000254565b810181811067ffffffffffffffff82111715620002c157620002c062000265565b5b80604052505050565b6000620002d66200023b565b9050620002e4828262000294565b919050565b600067ffffffffffffffff82111562000307576200030662000265565b5b602082029050602081019050919050565b600080fd5b6000819050919050565b62000332816200031d565b81146200033e57600080fd5b50565b600081519050620003528162000327565b92915050565b60006200036f6200036984620002e9565b620002ca565b9050808382526020820190506020840283018581111562000395576200039462000318565b5b835b81811015620003c25780620003ad888262000341565b84526020840193505060208101905062000397565b5050509392505050565b600082601f830112620003e457620003e36200024f565b5b8151620003f684826020860162000358565b91505092915050565b600073ffffffffffffffffffffffffffffffffffffffff82169050919050565b60006200042c82620003ff565b9050919050565b6200043e816200041f565b81146200044a57600080fd5b50565b6000815190506200045e8162000433565b92915050565b6000819050919050565b620004798162000464565b81146200048557600080fd5b50565b60008151905062000499816200046e565b92915050565b600080fd5b600067ffffffffffffffff821115620004c257620004c162000265565b5b620004cd8262000254565b9050602081019050919050565b60005b83811015620004fa578082015181840152602081019050620004dd565b60008484015250505050565b60006200051d6200051784620004a4565b620002ca565b9050828152602081018484840111156200053c576200053b6200049f565b5b62000549848285620004da565b509392505050565b600082601f8301126200056957620005686200024f565b5b81516200057b84826020860162000506565b91505092915050565b60008060008060808587031215620005a157620005a062000245565b5b600085015167ffffffffffffffff811115620005c257620005c16200024a565b5b620005d087828801620003cc565b9450506020620005e3878288016200044d565b9350506040620005f68782880162000488565b925050606085015167ffffffffffffffff8111156200061a57620006196200024a565b5b620006288782880162000551565b91505092959194509250565b7f4e487b7100000000000000000000000000000000000000000000000000000000600052603260045260246000fd5b7f4e487b7100000000000000000000000000000000000000000000000000000000600052601160045260246000fd5b60006200069f8262000464565b91507fffffffffffffffffffffffffffffffffffffffffffffffffffffffffffffffff8203620006d457620006d362000663565b5b600182019050919050565b620006ea816200031d565b82525050565b620006fb8162000464565b82525050565b6200070c816200041f565b82525050565b600060a082019050620007296000830188620006df565b620007386020830187620006df565b620007476040830186620006df565b620007566060830185620006f0565b62000765608083018462000701565b9695505050505050565b60805160a05160c05160e0516101005161012051610140516115c3620007d16000396000818161047901526106ff0152600061093f015260006109810152600061096001526000610895015260006108eb0152600061091401526115c36000f3fe608060405234801561001057600080fd5b506004361061009e5760003560e01c80637ecebe00116100665780637ecebe001461014a578063a72003511461017a578063b384abef146101aa578063c07473f6146101c6578063e2ba53f0146101f65761009e565b8063013cf08b146100a357806304f81b35146100d45780632a8cd29e146100f057806355a373d61461010e578063609ff1bd1461012c575b600080fd5b6100bd60048036038101906100b89190610cb1565b610214565b6040516100cb929190610d06565b60405180910390f35b6100ee60048036038101906100e99190610d94565b610248565b005b6100f8610471565b6040516101059190610e36565b60405180910390f35b610116610477565b6040516101239190610ed0565b60405180910390f35b61013461049b565b6040516101419190610e36565b60405180910390f35b610164600480360381019061015f9190610f29565b610523565b6040516101719190610e36565b60405180910390f35b610194600480360381019061018f9190610f29565b610573565b6040516101a19190610e36565b60405180910390f35b6101c460048036038101906101bf9190610f56565b61058b565b005b6101e060048036038101906101db9190610f29565b6106bb565b6040516101ed9190610e36565b60405180910390f35b6101fe6107ac565b60405161020b9190610f96565b60405180910390f35b6001818154811061022457600080fd5b90600052602060002090600202016000915090508060000154908060010154905082565b6000610253336106bb565b90508681101561029c5786816040517f29eed8ef000000000000000000000000000000000000000000000000000000008152600401610293929190610fb1565b60405180910390fd5b844211156102df576040517f08c379a00000000000000000000000000000000000000000000000000000000081526004016102d690611037565b60405180910390fd5b600061034361033b7f28816ce205799cd8e74a803d550b4f187a36f340db77c90235bdf7187faa05328b8b8b8b604051602001610320959493929190611057565b604051602081830303815290604052805190602001206107e0565b8686866107fa565b905061034e81610825565b871461038f576040517f08c379a0000000000000000000000000000000000000000000000000000000008152600401610386906110f6565b60405180910390fd5b87600260008373ffffffffffffffffffffffffffffffffffffffff1673ffffffffffffffffffffffffffffffffffffffff16815260200190815260200160002060008282546103de9190611145565b925050819055508760018a815481106103fa576103f9611179565b5b9060005260206000209060020201600101600082825461041a9190611145565b9250508190555087898273ffffffffffffffffffffffffffffffffffffffff167fafd3f234c1f8e944129b26b206d98e5752ad3336a4059938b4a3e990e958853060405160405180910390a4505050505050505050565b60005481565b7f000000000000000000000000000000000000000000000000000000000000000081565b6000806000905060005b60018054905081101561051e5781600182815481106104c7576104c6611179565b5b906000526020600020906002020160010154111561050b57600181815481106104f3576104f2611179565b5b90600052602060002090600202016001015491508092505b8080610516906111a8565b9150506104a5565b505090565b600061056c600360008473ffffffffffffffffffffffffffffffffffffffff1673ffffffffffffffffffffffffffffffffffffffff168152602001908152602001600020610883565b9050919050565b60026020528060005260406000206000915090505481565b6000610596336106bb565b9050818110156105df5781816040517f29eed8ef0000000000000000000000000000000000000000000000000000000081526004016105d6929190610fb1565b60405180910390fd5b81600260003373ffffffffffffffffffffffffffffffffffffffff1673ffffffffffffffffffffffffffffffffffffffff168152602001908152602001600020600082825461062e9190611145565b92505081905550816001848154811061064a57610649611179565b5b9060005260206000209060020201600101600082825461066a9190611145565b9250508190555081833373ffffffffffffffffffffffffffffffffffffffff167fafd3f234c1f8e944129b26b206d98e5752ad3336a4059938b4a3e990e958853060405160405180910390a4505050565b6000600260008373ffffffffffffffffffffffffffffffffffffffff1673ffffffffffffffffffffffffffffffffffffffff168152602001908152602001600020547f000000000000000000000000000000000000000000000000000000000000000073ffffffffffffffffffffffffffffffffffffffff16633a46b1a8846000546040518363ffffffff1660e01b815260040161075a9291906111ff565b602060405180830381865afa158015610777573d6000803e3d6000fd5b505050506040513d601f19601f8201168201806040525081019061079b919061123d565b6107a5919061126a565b9050919050565b600060016107b861049b565b815481106107c9576107c8611179565b5b906000526020600020906002020160000154905090565b60006107f36107ed610891565b836109ab565b9050919050565b600080600061080b878787876109de565b9150915061081881610ac0565b8192505050949350505050565b600080600360008473ffffffffffffffffffffffffffffffffffffffff1673ffffffffffffffffffffffffffffffffffffffff168152602001908152602001600020905061087281610883565b915061087d81610c26565b50919050565b600081600001549050919050565b60007f000000000000000000000000000000000000000000000000000000000000000073ffffffffffffffffffffffffffffffffffffffff163073ffffffffffffffffffffffffffffffffffffffff1614801561090d57507f000000000000000000000000000000000000000000000000000000000000000046145b1561093a577f000000000000000000000000000000000000000000000000000000000000000090506109a8565b6109a57f00000000000000000000000000000000000000000000000000000000000000007f00000000000000000000000000000000000000000000000000000000000000007f0000000000000000000000000000000000000000000000000000000000000000610c3c565b90505b90565b600082826040516020016109c0929190611316565b60405160208183030381529060405280519060200120905092915050565b6000807f7fffffffffffffffffffffffffffffff5d576e7357a4501ddfe92f46681b20a08360001c1115610a19576000600391509150610ab7565b600060018787878760405160008152602001604052604051610a3e949392919061135c565b6020604051602081039080840390855afa158015610a60573d6000803e3d6000fd5b505050602060405103519050600073ffffffffffffffffffffffffffffffffffffffff168173ffffffffffffffffffffffffffffffffffffffff1603610aae57600060019250925050610ab7565b80600092509250505b94509492505050565b60006004811115610ad457610ad36113a1565b5b816004811115610ae757610ae66113a1565b5b0315610c235760016004811115610b0157610b006113a1565b5b816004811115610b1457610b136113a1565b5b03610b54576040517f08c379a0000000000000000000000000000000000000000000000000000000008152600401610b4b9061141c565b60405180910390fd5b60026004811115610b6857610b676113a1565b5b816004811115610b7b57610b7a6113a1565b5b03610bbb576040517f08c379a0000000000000000000000000000000000000000000000000000000008152600401610bb290611488565b60405180910390fd5b60036004811115610bcf57610bce6113a1565b5b816004811115610be257610be16113a1565b5b03610c22576040517f08c379a0000000000000000000000000000000000000000000000000000000008152600401610c199061151a565b60405180910390fd5b5b50565b6001816000016000828254019250508190555050565b60008383834630604051602001610c5795949392919061153a565b6040516020818303038152906040528051906020012090509392505050565b600080fd5b6000819050919050565b610c8e81610c7b565b8114610c9957600080fd5b50565b600081359050610cab81610c85565b92915050565b600060208284031215610cc757610cc6610c76565b5b6000610cd584828501610c9c565b91505092915050565b6000819050919050565b610cf181610cde565b82525050565b610d0081610c7b565b82525050565b6000604082019050610d1b6000830185610ce8565b610d286020830184610cf7565b9392505050565b600060ff82169050919050565b610d4581610d2f565b8114610d5057600080fd5b50565b600081359050610d6281610d3c565b92915050565b610d7181610cde565b8114610d7c57600080fd5b50565b600081359050610d8e81610d68565b92915050565b600080600080600080600060e0888a031215610db357610db2610c76565b5b6000610dc18a828b01610c9c565b9750506020610dd28a828b01610c9c565b9650506040610de38a828b01610c9c565b9550506060610df48a828b01610c9c565b9450506080610e058a828b01610d53565b93505060a0610e168a828b01610d7f565b92505060c0610e278a828b01610d7f565b91505092959891949750929550565b6000602082019050610e4b6000830184610cf7565b92915050565b600073ffffffffffffffffffffffffffffffffffffffff82169050919050565b6000819050919050565b6000610e96610e91610e8c84610e51565b610e71565b610e51565b9050919050565b6000610ea882610e7b565b9050919050565b6000610eba82610e9d565b9050919050565b610eca81610eaf565b82525050565b6000602082019050610ee56000830184610ec1565b92915050565b6000610ef682610e51565b9050919050565b610f0681610eeb565b8114610f1157600080fd5b50565b600081359050610f2381610efd565b92915050565b600060208284031215610f3f57610f3e610c76565b5b6000610f4d84828501610f14565b91505092915050565b60008060408385031215610f6d57610f6c610c76565b5b6000610f7b85828601610c9c565b9250506020610f8c85828601610c9c565b9150509250929050565b6000602082019050610fab6000830184610ce8565b92915050565b6000604082019050610fc66000830185610cf7565b610fd36020830184610cf7565b9392505050565b600082825260208201905092915050565b7f5369676e61747572652065787069726564000000000000000000000000000000600082015250565b6000611021601183610fda565b915061102c82610feb565b602082019050919050565b6000602082019050818103600083015261105081611014565b9050919050565b600060a08201905061106c6000830188610ce8565b6110796020830187610cf7565b6110866040830186610cf7565b6110936060830185610cf7565b6110a06080830184610cf7565b9695505050505050565b7f496e76616c6964206e6f6e636500000000000000000000000000000000000000600082015250565b60006110e0600d83610fda565b91506110eb826110aa565b602082019050919050565b6000602082019050818103600083015261110f816110d3565b9050919050565b7f4e487b7100000000000000000000000000000000000000000000000000000000600052601160045260246000fd5b600061115082610c7b565b915061115b83610c7b565b925082820190508082111561117357611172611116565b5b92915050565b7f4e487b7100000000000000000000000000000000000000000000000000000000600052603260045260246000fd5b60006111b382610c7b565b91507fffffffffffffffffffffffffffffffffffffffffffffffffffffffffffffffff82036111e5576111e4611116565b5b600182019050919050565b6111f981610eeb565b82525050565b600060408201905061121460008301856111f0565b6112216020830184610cf7565b9392505050565b60008151905061123781610c85565b92915050565b60006020828403121561125357611252610c76565b5b600061126184828501611228565b91505092915050565b600061127582610c7b565b915061128083610c7b565b925082820390508181111561129857611297611116565b5b92915050565b600081905092915050565b7f1901000000000000000000000000000000000000000000000000000000000000600082015250565b60006112df60028361129e565b91506112ea826112a9565b600282019050919050565b6000819050919050565b61131061130b82610cde565b6112f5565b82525050565b6000611321826112d2565b915061132d82856112ff565b60208201915061133d82846112ff565b6020820191508190509392505050565b61135681610d2f565b82525050565b60006080820190506113716000830187610ce8565b61137e602083018661134d565b61138b6040830185610ce8565b6113986060830184610ce8565b95945050505050565b7f4e487b7100000000000000000000000000000000000000000000000000000000600052602160045260246000fd5b7f45434453413a20696e76616c6964207369676e61747572650000000000000000600082015250565b6000611406601883610fda565b9150611411826113d0565b602082019050919050565b60006020820190508181036000830152611435816113f9565b9050919050565b7f45434453413a20696e76616c6964207369676e6174757265206c656e67746800600082015250565b6000611472601f83610fda565b915061147d8261143c565b602082019050919050565b600060208201905081810360008301526114a181611465565b9050919050565b7f45434453413a20696e76616c6964207369676e6174757265202773272076616c60008201527f7565000000000000000000000000000000000000000000000000000000000000602082015250565b6000611504602283610fda565b915061150f826114a8565b604082019050919050565b60006020820190508181036000830152611533816114f7565b9050919050565b600060a08201905061154f6000830188610ce8565b61155c6020830187610ce8565b6115696040830186610ce8565b6115766060830185610cf7565b61158360808301846111f0565b969550505050505056fea2646970667358221220252f42aaafe07c5a5f5dd4277fab65a3d40db52f84d1609094897a566061e27764736f6c63430008110033",
  "linkReferences": {},
  "deployedLinkReferences": {}
}